:020000040800F2
:1000000028080020892600084D1C00084F1C000805
:10001000531C0008571C00085B1C0008000000006F
:100020000000000000000000000000005F1C00084D
:10003000611C000800000000631C0008651C00082B
:10004000A3260008A3260008A3260008A32600086C
:10005000A3260008A3260008A3260008A32600085C
:10006000431F0008791F0008A3260008A3260008E4
:10007000A3260008A3260008A3260008A32600083C
:10008000A3260008A3260008A3260008A32600082C
:10009000A3260008A3260008A3260008A32600081C
:1000A000A3260008A3260008A3260008A32600080C
:1000B000D9220008A3260008A3260008A3260008CA
:1000C000A3260008A3260008A3260008A3260008EC
:1000D000A3260008DD240008A32600080726000840
:1000E000A3260008A3260008A3260008A3260008CC
:1000F000A3260008A3260008A3260008A3260008BC
:10010000A3260008A3260008A3260008A3260008AB
:10011000A3260008A3260008A3260008A32600089B
:10012000A3260008A3260008A3260008A32600088B
:1001300000F002F800F03AF80AA090E8000C8244BF
:100140008344AAF10107DA4501D100F02FF8AFF29C
:10015000090EBAE80F0013F0010F18BFFB1A43F0A5
:1001600001031847EC4000000C410000103A24BF86
:1001700078C878C1FAD8520724BF30C830C144BF0C
:1001800004680C607047000000230024002500264E
:10019000103A28BF78C1FBD8520728BF30C148BFEA
:1001A0000B6070471FB51FBD10B510BD04F01DF8E2
:1001B0001146FFF7F7FF00F009F804F03BF803B42D
:1001C000FFF7F2FF03BC02F009F90000012401254A
:1001D000012600BF02F098F802F00AF841F61F412C
:1001E000C72001F071FF4FF4E13002F02AF94FF41B
:1001F000165002F0ACF901F020BDFE48007831281D
:100200007ED1322002F0BDF80020FB490880F94879
:1002100000783128F4D1322002F0B3F80020F649FA
:100220000880D6E1F548006800286AD1F4480068E3
:100230000028FAD1F1480C380068012814D1EF48A1
:100240000838006801280FD1012C0DD101F0E2FE21
:10025000002401264FF48C7002F093F801F0A4FE04
:10026000502002F08EF8B4E1E4480C380068012810
:1002700013D1E2480838006801280ED1022C0CD1B5
:1002800001F0DAFE03244FF48C7002F07AF801F0EA
:100290008BFE502002F075F89BE1D94800680128D8
:1002A0006BD1032D69D101F0FDFE0120D34914313A
:1002B00008604FF4487002F064F84FF4487002F0A0
:1002C00060F84FF4487002F05CF84FF4487002F0A8
:1002D00058F84FF4487002F054F84FF4487002F0A8
:1002E00050F84FF4487002F04CF84FF4487002F0A8
:1002F00048F84FF4487002F044F84FF4487001E0B9
:100300006CE15EE002F03DF84FF4487002F039F81D
:100310004FF4487002F035F84FF4487002F031F8AD
:100320004FF4487002F02DF84FF4487002F029F8AD
:100330004FF4487002F025F84FF4487002F021F8AD
:100340004FF4487002F01DF84FF4487002F019F8AD
:100350004FF4487002F015F84FF4487002F011F8AD
:100360004FF4487002F00DF84FF4487002F009F8AD
:100370004FF4487002F005F82BE1A0480C380068F3
:1003800050B99E4808380068012805D101F01EFECA
:10039000032001F0F6FF1CE198480C3800680128A2
:1003A00009D196480838006828B901F021FE0320D9
:1003B00001F0E7FF0DE101F0F7FD032001F0E1FF9F
:1003C00007E18E48006800284ED18D48006801285A
:1003D0004AD1012D0DD101F065FE4FF4966001F078
:1003E000D0FF01F0E1FD4FF4167001F0CAFF0025C7
:1003F000EFE0002DC0D1012080499031086001F06C
:1004000051FE0224022603254FF4487001F0B9FF83
:100410004FF4487001F0B5FF4FF4487001F0B1FFA0
:100420004FF4487001F0ADFF4FF4487001F0A9FFA0
:100430004FF4487001F0A5FF4FF4487001F0A1FFA0
:1004400000207049C1F8A4014FF4C87001F099FF71
:1004500001F0E0FD4FF41B7001F093FF01F0A4FDEB
:10046000642001F08EFFB4E064480068012892D156
:10047000012C05D101F016FE0A2001F082FFA8E050
:100480005E480C380068012813D15C4808380068C1
:1004900001280ED1022C0CD1032401F0CDFD4FF424
:1004A0008C7001F06EFF01F07FFD502001F069FFBC
:1004B0008FE053480068012868D1032D66D101F010
:1004C000F1FD01204D49143108604FF4487001F0EE
:1004D00058FF4FF4487001F054FF4FF4487001F09A
:1004E00050FF4FF4487001F04CFF4FF4487001F09A
:1004F00048FF4FF4487001F044FF4FF4487001F09A
:1005000040FF4FF4487001F03CFF4FF4487001F099
:1005100038FF4FF4487001F034FF4FF4487001F099
:1005200030FF4FF4487001F02CFF4FF4487001F099
:1005300028FF4FF4487001F024FF4FF4487001F099
:1005400020FF4FF4487001F01CFF4FF4487001F099
:1005500018FF4FF4487001F014FF4FF4487001F099
:1005600010FF4FF4487001F00CFF4FF4487001F099
:1005700008FF4FF4487001F004FF4FF4487001F099
:1005800000FF4FF4487001F0FCFE22E01B480C38DD
:10059000006850B9194808380068012805D101F0F1
:1005A00015FD032001F0EDFE13E014480C3800683F
:1005B000012809D111480838006828B901F018FD50
:1005C000032001F0DEFE04E001F0EEFC032001F068
:1005D000D8FE0848007831283FF424AE054800785A
:1005E00032287DD101F0CDFE00200349088001486A
:1005F000007809E0340000201C0000201401214292
:1006000030812142000021423228EAD101F0B9FEB6
:100610000020FB490880D8E1FA48006800287DD115
:10062000F94800680028FAD1F6480C38006801281B
:1006300014D1F4480838006801280FD1012C0DD1DD
:1006400001F0FAFC002401264FF4877001F099FEB6
:1006500001F0AAFC502001F094FEB6E1E9480C3804
:100660000068012813D1E7480838006801280ED136
:10067000022C0CD101F0CEFC03244FF48C7001F05D
:1006800080FE01F091FC502001F07BFE9DE1DE48F0
:10069000006801286CD1032D6AD101F003FD01200F
:1006A000D849143108604FF4487001F06AFE4FF4E5
:1006B000487001F066FE4FF4487001F062FE4FF49E
:1006C000487001F05EFE4FF4487001F05AFE4FF49E
:1006D000487001F056FE4FF4487001F052FE00E001
:1006E00078E14FF4487001F04CFE4FF4487001F08F
:1006F00048FE4FF4487001F044FE4FF4487001F09A
:1007000040FE4FF4487001F03CFE4FF4487001F099
:1007100038FE4FF4487001F034FE00E04CE04FF436
:10072000487001F02EFE4FF4487001F02AFE4FF49D
:10073000487001F026FE4FF4487001F022FE4FF49D
:10074000487001F01EFE4FF4487001F01AFE4FF49D
:10075000487001F016FE4FF4487001F012FE4FF49D
:10076000487001F00EFE4FF4487001F00AFE2CE1D3
:10077000A4480C38006850B9A2480838006801281D
:1007800005D101F023FC032001F0FBFD1DE19D4894
:100790000C380068012809D19A480838006828B93F
:1007A00001F026FC032001F0ECFD0EE101F0FCFB62
:1007B000032001F0E6FD08E192480068E8BB92489A
:1007C000006801284CD1012D0DD101F06BFC4FF4D4
:1007D000966001F0D6FD01F0E7FB4FF4167001F0D2
:1007E000D0FD0025F1E0002DC1D1012085499031D7
:1007F000086001F057FC0224022603254FF44870DC
:1008000001F0BFFD4FF4487001F0BBFD4FF448709C
:1008100001F0B7FD4FF4487001F0B3FD4FF448709C
:1008200001F0AFFD4FF4487001F0ABFD4FF448709C
:1008300001F0A7FD0020754900E011E0C1F8A40116
:100840004FF4C87001F09DFD01F0F6FB40F28A20E4
:1008500001F097FD01F0A8FB642001F092FDB4E0E7
:1008600068480068012806D1012C05D101F01AFC66
:100870000A2001F086FDA8E062480C3800680128D3
:1008800013D160480838006801280ED1022C0CD121
:10089000032401F0BFFB4FF48C7001F072FD01F0F6
:1008A00083FB502001F06DFD8FE057480068012860
:1008B00068D1032D66D101F0F5FB012051491431B7
:1008C00008604FF4487001F05CFD4FF4487001F08F
:1008D00058FD4FF4487001F054FD4FF4487001F09A
:1008E00050FD4FF4487001F04CFD4FF4487001F09A
:1008F00048FD4FF4487001F044FD4FF4487001F09A
:1009000040FD4FF4487001F03CFD4FF4487001F099
:1009100038FD4FF4487001F034FD4FF4487001F099
:1009200030FD4FF4487001F02CFD4FF4487001F099
:1009300028FD4FF4487001F024FD4FF4487001F099
:1009400020FD4FF4487001F01CFD4FF4487001F099
:1009500018FD4FF4487001F014FD4FF4487001F099
:1009600010FD4FF4487001F00CFD4FF4487001F099
:1009700008FD4FF4487001F004FD4FF4487001F099
:1009800000FD22E01F480C38006850B91D480838A7
:100990000068012805D101F019FB032001F0F1FCEA
:1009A00013E018480C380068012809D115480838A8
:1009B000006828B901F01CFB032001F0E2FC04E010
:1009C00001F0F2FA032001F0DCFC11480078322833
:1009D0003FF422AE0E48007833287CD1322001F05B
:1009E000D0FC002006490880094800783328F4D15B
:1009F000322001F0C6FC00200149088021E20000FD
:100A00001C000020140121423081214200002142BB
:100A100034000020FE48006800287CD1FD480068B2
:100A20000028FAD1FA480C380068012814D1F84897
:100A30000838006801280FD1052C0DD101F0EAFA21
:100A4000002401264FF48C7001F09BFC01F0ACFAFD
:100A5000502001F096FCF4E1ED480C3800680128C4
:100A600013D1EB480838006801280ED1022C0CD1B4
:100A700001F0E2FA03244FF48C7001F082FC01F0E3
:100A800093FA502001F07DFCDBE1E1480C3800686E
:100A900001280DD1DE4808380068012808D1032C50
:100AA00006D101F081FA502001F06BFC0824C8E166
:100AB000D7480C38006801280ED1D548083800689E
:100AC000012809D1012C07D101F06EFA502001F064
:100AD00058FC0524B5E1B9E1CE48006801286AD187
:100AE000022D68D101F0DEFA0120C94914310860F5
:100AF0004FF4487001F045FC4FF4487001F041FCA0
:100B00004FF4487001F03DFC4FF4487001F039FC9F
:100B10004FF4487000E072E001F033FC4FF448708D
:100B200001F02FFC4FF4487001F02BFC4FF448709B
:100B300001F027FC4FF4487001F023FC4FF448709B
:100B400001F01FFC4FF4487001F01BFC4FF448709B
:100B500001F017FC4FF4487001F013FC4FF448709B
:100B600001F00FFC4FF4487001F00BFC4FF448709B
:100B700001F007FC4FF4487001F003FC4FF448709B
:100B800001F0FFFB4FF4487001F0FBFB4FF448709D
:100B900001F0F7FB4FF4487001F0F3FB4FF448709D
:100BA00001F0EFFB4FF4487001F0EBFB4FF448709D
:100BB00001F0E7FB45E196480C38006850B99448CD
:100BC00008380068012805D101F000FA032001F07F
:100BD000D8FB36E18E480C380068012809D18C48D2
:100BE0000838006828B901F003FA032001F0C9FBB6
:100BF00027E101F0D9F9032001F0C3FB21E184488A
:100C00000068E8BB8348006801284CD1012D0DD154
:100C100001F048FA4FF4966001F0B3FB01F0C4F91B
:100C20004FF4167001F0ADFB00250AE1002DC1D193
:100C3000012077499031086001F034FA022402263D
:100C400002254FF4487001F09CFB4FF4487001F00E
:100C500098FB4FF4487001F094FB4FF4487001F09A
:100C600090FB4FF4487001F08CFB4FF4487001F09A
:100C700088FB4FF4487001F084FB0020664900E0D7
:100C800011E0C1F8A4014FF4C87001F07AFB01F043
:100C9000C1F94FF41B7001F074FB01F085F9642079
:100CA00001F06FFBCDE05A480068012806D1012C05
:100CB00005D101F0F7F90A2001F063FBC1E05448C7
:100CC0000C380068012813D1514808380068012801
:100CD0000ED1022C0CD101F0AFF903244FF48C702B
:100CE00001F04FFB01F060F9502001F04AFBA8E051
:100CF00047480C38006801280DD14548083800687D
:100D0000012808D1032C06D101F04EF9502001F042
:100D100038FB082495E03F480068012868D1022D7F
:100D200066D101F0BFF901203949143108604FF450
:100D3000487001F026FB4FF4487001F022FB4FF49D
:100D4000487001F01EFB4FF4487001F01AFB4FF49D
:100D5000487001F016FB4FF4487001F012FB4FF49D
:100D6000487001F00EFB4FF4487001F00AFB4FF49D
:100D7000487001F006FB4FF4487001F002FB4FF49D
:100D8000487001F0FEFA4FF4487001F0FAFA4FF49F
:100D9000487001F0F6FA4FF4487001F0F2FA4FF49F
:100DA000487001F0EEFA4FF4487001F0EAFA4FF49F
:100DB000487001F0E6FA4FF4487001F0E2FA4FF49F
:100DC000487001F0DEFA4FF4487001F0DAFA4FF49F
:100DD000487001F0D6FA4FF4487001F0D2FA4FF49F
:100DE000487001F0CEFA4FF4487001F0CAFA28E0DA
:100DF00007480C38006888B9054808380068012899
:100E00000CD101F0E3F8032001F0BBFA19E0000077
:100E1000140121423081214200002142FE48006835
:100E2000012809D1FC48001D006828B901F0E0F84C
:100E3000032001F0A6FA04E001F0B6F8032001F067
:100E4000A0FAF648007833283FF4E4ADF348007880
:100E500034287CD1322001F094FA0020F049088037
:100E6000EE4800783428F4D1322001F08AFA0020CC
:100E7000EB49088013E2E8480C300068002867D18D
:100E8000E8480068002863D1E3480068012814D1CD
:100E9000E148001D006801280FD1052C0DD101F09B
:100EA000CBF8002401264FF4877001F06AFA01F0B4
:100EB0007BF8502001F065FAF1E1D748006801287D
:100EC00013D1D548001D006801280ED1022C0CD189
:100ED00001F0A0F803244FF48C7001F052FA01F0F5
:100EE00063F8502001F04DFAD9E1CB4800680128A1
:100EF0000CD1C948001D0068012807D1032C05D179
:100F000001F052F8502001F03CFAC8E1C2480068F4
:100F100001280DD1C048001D0068012808D1012C0E
:100F200006D101F041F8502001F02BFA0524B6E17A
:100F3000BC48006801286BD1022D69D101F0B2F8DC
:100F40000120B549203108604FF4487001E0ABE161
:100F500080E001F016FA4FF4487001F012FA4FF4F5
:100F6000487001F00EFA4FF4487001F00AFA4FF49D
:100F7000487001F006FA4FF4487001F002FA4FF49D
:100F8000487001F0FEF94FF4487001F0FAF94FF49F
:100F9000487001F0F6F94FF4487001F0F2F94FF49F
:100FA000487001F0EEF94FF4487001F0EAF94FF49F
:100FB000487001F0E6F94FF4487001F0E2F94FF49F
:100FC000487001F0DEF94FF4487001F0DAF94FF49F
:100FD000487001F0D6F94FF4487001F0D2F94FF49F
:100FE000487001F0CEF94FF4487001F0CAF94FF49F
:100FF000487001F0C6F94FF4487001F0C2F94FF49F
:10100000487001F0BEF94FF4487001F0BAF946E1BA
:101010008148006850B98048001D0068012805D14A
:1010200000F0D4FF032001F0ACF938E17A48006801
:10103000012809D17848001D006828B900F0D8FFC0
:10104000032001F09EF92AE100F0AEFF032001F039
:1010500098F924E170480C300068E8BB71480068DA
:1010600001284CD1012D0DD101F01CF84FF49660F0
:1010700001F087F900F098FF4FF4167001F081F944
:1010800000250CE1002D39D1012063499C31086015
:1010900001F008F80224022602254FF4487001F0FE
:1010A00070F94FF4487001F06CF94FF4487001F09A
:1010B00068F94FF4487001F064F94FF4487001F09A
:1010C00060F94FF4487001F05CF94FF4487001F09A
:1010D00058F90020544900E011E0C1F8A4014FF490
:1010E000C87001F04EF900F0A7FF40F23A2001F07D
:1010F00048F900F059FF642001F043F9CFE0464879
:101100000C300068012806D1012C05D100F0CAFF7F
:101110000A2001F036F9C2E03F480068012813D1E7
:101120003D48001D006801280ED1022C0CD100F0B2
:1011300071FF03244FF48C7001F023F900F034FFA9
:10114000502001F01EF9AAE03348006801280CD1B4
:101150003148001D0068012807D1032C05D100F09B
:1011600023FF502001F00DF999E02E480068012876
:1011700074D1022D72D100F095FF01202649203153
:1011800008604FF4487001F0FCF84FF4487001F02B
:10119000F8F84FF4487001F0F4F84FF4487001F09B
:1011A000F0F84FF4487001F0ECF84FF4487001F09B
:1011B000E8F84FF4487001F0E4F84FF4487001F09B
:1011C000E0F84FF4487001F0DCF84FF4487001F09B
:1011D000D8F84FF4487001F0D4F84FF4487001F09B
:1011E000D0F84FF4487001F0CCF84FF4487001F09B
:1011F000C8F84FF4487001F0C4F84FF4487001F09B
:10120000C0F84FF4487001F0BCF84FF4487001F09A
:10121000B8F84FF4487009E008012142340000207A
:101220001C000020308121420000214201F0A9F879
:101230004FF4487001F0A5F84FF4487001F0A1F8A0
:101240004FF4487001F09DF84FF4487001F099F8A0
:101250004FF4487001F095F821E0FFE7FE48006880
:1012600050B9FD48001D0068012805D100F0AEFE10
:10127000032001F086F812E0F7480068012809D140
:10128000F548001D006828B900F0B2FE032001F007
:1012900078F804E000F088FE032001F072F8EF48CF
:1012A000007834283FF4E7ADEC48007835287DD14C
:1012B000322001F066F80020E9490880E74800780C
:1012C0003528F4D1322001F05CF80020E449088090
:1012D00049E2E1480C300068002868D1E148006824
:1012E000002864D1DC480068012813D1DA48001DC9
:1012F000006801280ED1062C0CD100F08BFE0224D0
:1013000001264FF4967001F03CF800F04DFE50209D
:1013100001F037F8D048006801280CD1CE48001DF4
:101320000068012807D1012C05D100F03DFE822084
:1013300001F027F80524C848006801280DD1C648E7
:10134000001D0068012808D1052C06D100F02CFEF4
:10135000822001F016F8062405E2BF480068012843
:1013600013D1BD48001D006801280ED1022C0CD1FC
:1013700000F062FE03244FF48C7001F002F800F0DC
:1013800013FE502000F0FDFFEDE1B3480068012896
:1013900010D1B148001D006801280BD1032C09D1E0
:1013A00000F002FE502000F0ECFF01E0E0E1A1E0DF
:1013B0000724D8E1A848006801280CD1A648001DE0
:1013C0000068012807D1072C05D100F0EDFD82202F
:1013D00000F0D7FFC7E1A3480068012868D1022DBB
:1013E00066D100F05FFE01209B49203108604FF478
:1013F000487000F0C6FF4FF4487000F0C2FF4FF491
:10140000487000F0BEFF4FF4487000F0BAFF4FF490
:10141000487000F0B6FF4FF4487000F0B2FF4FF490
:10142000487000F0AEFF4FF4487000F0AAFF4FF490
:10143000487000F0A6FF4FF4487000F0A2FF4FF490
:10144000487000F09EFF4FF4487000F09AFF4FF490
:10145000487000F096FF4FF4487000F092FF4FF490
:10146000487000F08EFF4FF4487000F08AFF4FF490
:10147000487000F086FF4FF4487000F082FF4FF490
:10148000487000F07EFF4FF4487000F07AFF4FF490
:10149000487000F076FF4FF4487000F072FF4FF490
:1014A000487000F06EFF4FF4487000F06AFF5AE198
:1014B0006948006850B96848001D0068012805D1D6
:1014C00000F084FD032000F05CFF4CE162480068FE
:1014D000012809D16048001D006828B900F088FD86
:1014E000032000F04EFF3EE100F05EFD032000F01F
:1014F00048FF38E158480C300068E8BB594800689C
:1015000001284ED1012D0DD100F0CCFD4FF4966095
:1015100000F037FF00F048FD4FF4167000F031FF87
:10152000002520E14DBB012E27D101204A499C31E5
:10153000086000F0B7FD0224022602254FF448702F
:1015400000F01FFF4FF4487000F01BFF4FF448708D
:1015500000F017FF4FF4487000F013FF4FF448708D
:1015600000F00FFF4FF4487000F00BFF4FF448708D
:1015700000F007FF002001E013E01EE03A49C1F847
:10158000A4014FF4C87000F0FCFE00F043FD4FF4DE
:10159000207000F0F6FE00F007FD642000F0F1FE80
:1015A000E1E02D480C300068012806D1012C05D15E
:1015B00000F078FD0A2000F0E4FED4E02648006840
:1015C000012813D12448001D006801280ED1022CE7
:1015D0000CD100F031FD03244FF48C7000F0D1FEEB
:1015E00000F0E2FC502000F0CCFEBCE01A4800689D
:1015F00001280DD11848001D0068012808D1032CCE
:1016000006D100F0D1FC502000F0BBFE0724AAE078
:101610001148006801280CD10F48001D00680128FE
:1016200007D1072C05D100F0BFFC822000F0A9FEF5
:1016300099E00C480068012874D1022D72D100F0A5
:1016400031FD01200449203108604FF4487000F05A
:1016500098FE4FF4487009E0080121423400002050
:101660001C000020308121420000214200F089FE50
:101670004FF4487000F085FE4FF4487000F081FE92
:101680004FF4487000F07DFE4FF4487000F079FE92
:101690004FF4487000F075FE4FF4487000F071FE92
:1016A0004FF4487000F06DFE4FF4487000F069FE92
:1016B0004FF4487000F065FE4FF4487000F061FE92
:1016C0004FF4487000F05DFE4FF4487000F059FE92
:1016D0004FF4487000F055FE4FF4487000F051FE92
:1016E0004FF4487000F04DFE4FF4487000F049FE92
:1016F0004FF4487000F045FE4FF4487000F041FE92
:101700004FF4487000F03DFE4FF4487000F039FE91
:101710004FF4487000F035FE4FF4487000F031FE91
:1017200021E0FFE7FE48006850B9FD48001D006851
:10173000012805D100F04AFC032000F022FE12E04F
:10174000F7480068012809D1F548001D006828B94C
:1017500000F04EFC032000F014FE04E000F024FC36
:10176000032000F00EFEEF48007835283FF4B1ADBD
:10177000EC48007836287DD1322000F002FE0020AF
:10178000E9490880E74800783628F4D1322000F093
:10179000F8FD0020E449088047E2E1480C30006889
:1017A000E8BBE2480068D0BBDD480068012813D1DF
:1017B000DB48001D006801280ED1062C0CD100F07A
:1017C0003BFC022401264FF4877000F0DAFD00F0A4
:1017D000EBFB822000F0D5FDD148006801280CD138
:1017E000CF48001D0068012807D1012C05D100F069
:1017F000DBFB502000F0C5FD0524C9480068012826
:101800000ED1C748001D0068012809D1052C07D159
:1018100000F0CAFB502000F0B4FD062405E2CAE047
:10182000BF480068012813D1BD48001D0068012889
:101830000ED1022C0CD100F0EDFB03244FF48C7080
:1018400000F09FFD00F0B0FB502000F09AFDECE1AD
:10185000B348006801280ED1B148001D0068012876
:1018600009D1032C07D100F09FFB502000F089FD27
:101870000724DAE1DEE1AA48006801280CD1A84873
:10188000001D0068012807D1072C05D100F08CFB52
:10189000502000F076FDC8E1A4480068012868D116
:1018A000022D66D100F0FEFB01209D492031086029
:1018B0004FF4487000F065FD4FF4487000F061FD92
:1018C0004FF4487000F05DFD4FF4487000F059FD92
:1018D0004FF4487000F055FD4FF4487000F051FD92
:1018E0004FF4487000F04DFD4FF4487000F049FD92
:1018F0004FF4487000F045FD4FF4487000F041FD92
:101900004FF4487000F03DFD4FF4487000F039FD91
:101910004FF4487000F035FD4FF4487000F031FD91
:101920004FF4487000F02DFD4FF4487000F029FD91
:101930004FF4487000F025FD4FF4487000F021FD91
:101940004FF4487000F01DFD4FF4487000F019FD91
:101950004FF4487000F015FD4FF4487000F011FD91
:101960004FF4487000F00DFD4FF4487000F009FD91
:101970005BE16B48006850B96948001D00680128A8
:1019800005D100F023FB032000F0FBFC4DE164488F
:101990000068012809D16248001D006828B900F0DC
:1019A00027FB032000F0EDFC3FE100F0FDFA0320EF
:1019B00000F0E7FC39E15A480C300068F0BB5B48A6
:1019C000006801284ED1012D0DD100F06BFB4FF4C2
:1019D000966000F0D6FC00F0E7FA4FF4167000F0C5
:1019E000D0FC002521E155BB012E28D101204C4916
:1019F0009C31086000F056FB0224022602254FF4B9
:101A0000487000F0BEFC4FF4487000F0BAFC4FF490
:101A1000487000F0B6FC4FF4487000F0B2FC4FF490
:101A2000487000F0AEFC4FF4487000F0AAFC4FF490
:101A3000487000F0A6FC00203D4901E012E01DE0E6
:101A4000C1F8A4014FF4C87000F09BFC00F0F4FA58
:101A500040F23A2000F095FC00F0A6FA642000F075
:101A600090FCE2E02E480C300068012806D1012CE1
:101A700005D100F017FB0A2000F083FCD5E02848D0
:101A80000068012813D12648001D006801280ED1E6
:101A9000022C0CD100F0BEFA03244FF48C7000F03D
:101AA00070FC00F081FA502000F06BFCBDE01C4897
:101AB000006801280DD11A48001D0068012808D1CE
:101AC000032C06D100F070FA502000F05AFC0724D5
:101AD000ABE01348006801280CD11148001D0068D4
:101AE000012807D1072C05D100F05EFA502000F044
:101AF00048FC9AE00D480068012875D1022D73D189
:101B000000F0D0FA01200649203108604FF44870F7
:101B100000F037FC4FF4487000F033FC0AE000009E
:101B200008012142340000201C00002030812142A5
:101B3000000021424FF4487000F023FC4FF448703D
:101B400000F01FFC4FF4487000F01BFC4FF448708D
:101B500000F017FC4FF4487000F013FC4FF448708D
:101B600000F00FFC4FF4487000F00BFC4FF448708D
:101B700000F007FC4FF4487000F003FC4FF448708D
:101B800000F0FFFB4FF4487000F0FBFB4FF448708F
:101B900000F0F7FB4FF4487000F0F3FB4FF448708F
:101BA00000F0EFFB4FF4487000F0EBFB4FF448708F
:101BB00000F0E7FB4FF4487000F0E3FB4FF448708F
:101BC00000F0DFFB4FF4487000F0DBFB4FF448708F
:101BD00000F0D7FB4FF4487000F0D3FB4FF448708F
:101BE00000F0CFFB21E0FFE71548006850B914482A
:101BF000001D0068012805D100F0E8F9032000F07D
:101C0000C0FB12E00E480068012809D10C48001DF5
:101C1000006828B900F0ECF9032000F0B2FB04E002
:101C200000F0C2F9032000F0ACFB0648007836282B
:101C30003FF4B3AD002004490880FEF7DEBA00008F
:101C400008012142340000201C000020704700BF22
:101C5000FEE700BFFEE700BFFEE700BFFEE77047FC
:101C600070477047704700000CB50020019000904D
:101C70006C48006840F480306A49086000BF6948D9
:101C8000006800F4003000900198401C019000981A
:101C900018B90198B0F5A06FF1D16248006800F45E
:101CA000003010B10120009001E000200090009869
:101CB000012843D15C48006840F010005A49086090
:101CC0000846006820F0030008600846006840F0FD
:101CD000020008605348406852494860084640681E
:101CE00048600846406840F48060486008464068A4
:101CF00020F47C1048600846406840F4E8104860D2
:101D00000846006840F08070086000BF45480068E1
:101D100000F000700028F9D04248406820F003002D
:101D2000404948600846406840F00200486000BFF3
:101D30003C48406800F00C000828F9D10CBD10B5F3
:101D4000FFF792FF10BD10B53648006840F0010063
:101D500034490860084640683449084031494860C1
:101D600008460068324908402E4908600846006865
:101D700020F4802008600846406820F4FE00486097
:101D80004FF41F008860FFF7DAFF4FF00060294929
:101D9000086010BD10B5002100200022214B5B68B7
:101DA00003F00C0121B1042906D0082928D107E04D
:101DB000214B224C236027E01F4B204C236023E063
:101DC000184B5B6803F47010164B5B6803F48032A9
:101DD000022303EB904022B9194B4343174C236075
:101DE0000DE0104B5B6803F4003323B1144B434305
:101DF000124C236003E0104B4343104C236003E07C
:101E00000D4B0E4C236000BF00BF064B5B68C3F355
:101E100003130C4CE15C094B1B68CB40074C23605F
:101E200010BD000000100240002002400000FFF83A
:101E3000FFFFF6FE08ED00E000127A00000000202F
:101E400000093D00040000200EB50121084600F005
:101E5000C5FF0121042000F0C1FF0221002000F095
:101E600017FE0420019000208DF808000C208DF84A
:101E7000090001208DF80A0001A802F033F90321BE
:101E8000002000F005FE0820019000208DF80800D9
:101E90000C208DF8090001208DF80A0001A802F03D
:101EA00021F90421002000F0F3FD10200190002012
:101EB0008DF8080008208DF8090001208DF80A002F
:101EC00001A802F00FF90521002000F0E1FD20201B
:101ED000019000208DF8080008208DF809000120ED
:101EE0008DF80A0001A802F0FDF808208DF8000026
:101EF00002208DF8010000208DF8020001208DF8ED
:101F00000300684600F0E5FB09208DF80000022080
:101F10008DF8010001208DF802008DF8030068465D
:101F200000F0D7FB0A208DF8000002208DF8010098
:101F300001208DF802008DF80300684600F0C9FB0F
:101F40000EBD10B51748006808B900F051F81548E3
:101F5000006880B91348001D006860B91148083056
:101F6000006840B9042002F034F9082002F031F989
:101F7000102002F02EF910BD10B50A48001D0068AF
:101F800008B900F023F80748001D006840B9042094
:101F900002F01FF9082002F01CF9102002F019F9D4
:101FA00010BD00000801214210B500218D4802F04B
:101FB00045F812218B4802F043F81421894802F0B9
:101FC00041F80021874802F03FF810BD10B500210C
:101FD000844802F033F81921824802F031F80021D8
:101FE000804802F02FF819217E4802F02DF810BD2C
:101FF00010B51C217B4802F021F80021794802F03D
:102000001FF81C21774802F01DF80021754802F0E6
:102010001BF810BD10B53221724802F00FF80021F4
:10202000704802F00DF832216E4802F00BF80021E2
:102030006C4802F009F810BD10B50021694801F0A4
:10204000FDFF3221674801F0FBFF0021654801F0E8
:10205000F9FF3221634801F0F7FF10BD10B50021F0
:10206000604801F0EBFF64215E4801F0E9FF0021C8
:102070005C4801F0E7FF46215A4801F0E5FF10BD3A
:1020800010B54621574801F0D9FF0021554801F00D
:10209000D7FF6421534801F0D5FF0021514801F0DA
:1020A000D3FF10BD10B505214E4801F0C7FF002138
:1020B0004C4801F0C5FF00214A4801F0C3FF05214B
:1020C000484801F0C1FF10BD30B589B005460C4647
:1020D0000121022000F08FFE01210D2000F07EFE84
:1020E000ADF81850ADF814400020ADF81A00ADF866
:1020F00016008DF81C0005A93A4801F0ABF9C02084
:10210000ADF8200003208DF8220018208DF8230060
:1021100008A9354800F0A6FB0320ADF820008DF893
:10212000220018208DF8230008A9304800F09AFBFF
:102130007020ADF804000120ADF806000020ADF8D5
:102140000A00ADF80C0001A9264801F0C0F90821E9
:10215000244801F00BFE7020ADF804000120ADF81A
:1021600006000020ADF80A00ADF80C0001A91D48DA
:1021700001F0EFF908211B4801F001FE7020ADF8D5
:1021800004000120ADF806000020ADF80A00ADF80B
:102190000C0001A9134801F029FA0821114801F0A7
:1021A000FBFD7020ADF804000120ADF80600002012
:1021B000ADF80A00ADF80C0001A90A4801F061FA77
:1021C0000821084801F0F1FD0121064801F0AAFCB0
:1021D0000121044801F09AFD0121024801F096FC1A
:1021E00009B030BD0004004000080140000C01406F
:1021F00008B50121082000F0F1FD0121042000F0C4
:10220000EDFD4FF48060ADF8000003208DF8020072
:1022100010208DF803006946164800F023FB4FF4A8
:102220008061144800F0CDFB4FF40070ADF8000061
:1022300003208DF8020010208DF8030069460D4838
:1022400000F010FB4FF400710A4800F0BAFB2020A8
:10225000ADF8000010208DF8030003208DF8020077
:102260006946054800F0FEFA2021034800F0A7FB6C
:1022700008BD000000080140000C01407FB5054684
:102280000C460121084600F0B6FDADF80450ADF84B
:1022900000400020ADF80600ADF8020069464FF09E
:1022A000804001F0D7F801221146900701F049FC67
:1022B0000121880701F02AFC1C208DF80C00002069
:1022C0008DF80D0002208DF80E0001208DF80F0012
:1022D00003A800F0FEF97FBD10B50121880701F0C9
:1022E000DEFE70B10748008840F4004005490880D0
:1022F0000121880701F0E4FE00214FF0804001F049
:1023000005FC10BD1E00002010B56FF0040000F0A9
:102310002AFA2E4800682E49B0FBF1F02D490870CA
:102320000846007800EB4001C1EBC0104FF6FF718A
:1023300001EAC0002849088010BD0146254A1278EC
:102340004A434FF0E0235A6100229A611A4612690B
:1023500042F001021A6100BF4FF0E022106900F064
:1023600001021AB100F48032002AF5D04FF0E022C9
:10237000126922F001024FF0E0231A6100229A61F3
:1023800070470146144A12884A434FF0E0235A61CD
:1023900000229A611A46126942F001021A6100BFD6
:1023A0004FF0E022106900F001021AB100F480320F
:1023B000002AF5D04FF0E022126922F001024FF01E
:1023C000E0231A6100229A6170470000000000209B
:1023D00000127A00140000201600002000BF704791
:1023E00000BFA14A128802F04002002AF9D0C2B20E
:1023F0009D4B1B1D1A80704700BF9C4A128802F03B
:102400004002002AF9D0C2B2984B1B1D1A807047B7
:1024100000BF9649098801F040010029F9D093498D
:10242000091D0880704730B502460B46002405E0C0
:1024300012F8010BFFF7ECFF601CC4B29C42F7DB03
:1024400030BD10B586B00446012144F2040000F00E
:10245000C5FC4FF40070ADF8140003208DF8160091
:1024600018208DF8170005A9814800F0FBF94FF4FA
:102470008060ADF8140004208DF8170005A97C4891
:1024800000F0F0F925208DF8000002208DF8010001
:1024900003208DF8020001208DF80300684600F04B
:1024A00018F901940020ADF80800ADF80A00ADF865
:1024B0000C00ADF810000C20ADF80E0001A96A4820
:1024C00000F033FD012240F22551674800F0C5FDC0
:1024D0000121654800F0B5FD06B010BD10B540F211
:1024E0002551614800F09EFE10B35F4800F01AFECF
:1024F000C4B26048008800F40040C8B95D48008854
:1025000000F4804060B10A2C03D0002059490880B3
:102510001CE05848008840F400405649088015E007
:102520000D2C06D15348008840F480405149088062
:102530000CE0514804704F480088401C4D49088009
:1025400008460088C72801DD0020088010BD10B5AE
:1025500086B004460121082000F040FC01218804D7
:1025600000F049FC4FF48060ADF8140003208DF8B2
:10257000160018208DF8170005A9404800F072F9E0
:102580004FF40060ADF8140004208DF8170005A981
:102590003A4800F067F927208DF8000003208DF8F5
:1025A00001008DF8020001208DF80300684600F05C
:1025B00090F801940020ADF80800ADF80A00ADF8DD
:1025C0000C00ADF810000C20ADF80E0001A9274852
:1025D00000F0ABFC012240F22551244800F03DFD03
:1025E0000121224800F02DFD41F61F416320FFF735
:1025F00045FE00202249088000214FF0804001F074
:1026000085FA06B010BD10B540F22551174800F00C
:1026100009FE00B3154800F085FDC4B218480088D3
:1026200000F40040B8B916480088C82814DA002120
:102630004FF0804001F0FEFC1148008818B90121DC
:10264000880701F063FA0E4801880088401C0C4A94
:1026500010800C48445405E00948008840F40040CC
:102660000749088010BD00000038014000480040C4
:10267000000801401C00002034000020000C014034
:102680001E000020FC000020094880470948004740
:10269000FEE7FEE7FEE7FEE7FEE7FEE7FEE7FEE712
:1026A000FEE7FEE704480549054A064B704700006F
:1026B000471D0008310100082802002028080020DA
:1026C000280400202804002031490143314A1160C8
:1026D000704770B5002100230F22C47804B32D4C3D
:1026E000246804F4E064C4F5E064210AC1F1040341
:1026F000CA40447804FA03F1847814402143090164
:10270000254C0678A155047804F01F050124AC403F
:1027100005786D11AD0005F1E025C5F8004109E02F
:10272000047804F01F050124AC401C4D0678761196
:1027300045F8264070BD1A4A0A400243154B1B1F3C
:102740001A60704739B1134A121D12680243114BC7
:102750001B1D1A6006E00F4A121D126882430D4BC2
:102760001B1D1A607047042808D14FF0E021096949
:1027700041F004014FF0E022116107E04FF0E02149
:10278000096921F004014FF0E02211617047000057
:102790000000FA050CED00E000E400E080E100E05C
:1027A00080FFFF1F10B50446CC48844208D10121A8
:1027B000042000F02DFB0021042000F029FB46E05E
:1027C000C748844208D10121082000F021FB0021E4
:1027D000082000F01DFB3AE0C248844208D10121E4
:1027E000102000F015FB0021102000F011FB2EE05E
:1027F000BD48844208D10121202000F009FB0021BE
:10280000202000F005FB22E0B848844208D10121D5
:10281000402000F0FDFA0021402000F0F9FA16E017
:10282000B348844208D10121802000F0F1FA002150
:10283000802000F0EDFA0AE0AE48844207D1012181
:10284000801500F0E5FA0021A01500F0E1FA10BDB6
:1028500010B50121084600F0DBFA0021012000F04C
:10286000D7FA10BD2DE9F0410246002500260020D0
:1028700000230024002791F803C00CF00F0591F805
:1028800003C00CF0100CBCF1000F03D091F802C093
:102890004CEA050591F800C0BCF1000F31D0146876
:1028A00000202BE04FF0010C0CFA00F3B1F800C04F
:1028B0000CEA03069E4220D183004FF00F0C0CFA65
:1028C00003F7BC4305FA03FC4CEA040491F803C087
:1028D000BCF1280F06D14FF0010C0CFA00FCC2F835
:1028E00014C00AE091F803C0BCF1480F05D14FF0C5
:1028F000010C0CFA00FCC2F810C0401C0828D1D30F
:102900001460B1F800C0BCF1FF0F34DD5468002042
:102910002EE000F1080C4FF0010808FA0CF3B1F8B2
:1029200000C00CEA03069E4221D183004FF00F0C39
:102930000CFA03F7BC4305FA03FC4CEA040491F8D3
:1029400003C0BCF1280F05D100F1080C08FA0CF8FF
:10295000C2F8148091F803C0BCF1480F07D100F110
:10296000080C4FF0010808FA0CF8C2F81080401C5F
:102970000828CED35460BDE8F0814FF6FF71018086
:10298000022181700421C1707047024600209368C3
:102990000B400BB1012000E0002070470146886821
:1029A00080B2704702460020D3680B400BB1012073
:1029B00000E0002070470146C86880B2704701619E
:1029C0007047416170470AB1016100E041617047A1
:1029D000C16070474FF480320A4382618161826135
:1029E00082698269704702460020434B18684FF69F
:1029F0008073184040EA021008433F4B186070474C
:102A00003E49C8617047F0B50A4600230024002102
:102A1000002500F00046B6F1004F02D1364EF169B4
:102A200001E0354E7168C0F3034583B200F44016EF
:102A3000B6F5401F08D121F070612F4E766826F060
:102A400070662D4F7E6012E000F48016B6F5801F90
:102A500006D1032606FA05F4A14341F0706106E0B1
:102A6000460D360103FA06F6B14341F0706122B11A
:102A7000460D360103FA06F6314300F00046B6F182
:102A8000004F02D11C4EF16101E01B4E7160F0BDA0
:102A900030B500228B071C0F0F2303FA04F2164BEC
:102AA00008338C1053F824309343134C08348D10A2
:102AB00044F8253023468C1053F824308C07240F1B
:102AC00000FA04F423430C4C08348D1044F82530EC
:102AD00030BD0A49DC310860704700000008014041
:102AE000000C01400010014000140140001801409A
:102AF000001C014000200140000001400000204275
:102B0000DF48006840F00100DD4908600846406881
:102B1000DC490840DA49486008460068DA4908405C
:102B2000D74908600846006820F4802008600846FD
:102B3000406820F4FE0048604FF41F008860704732
:102B4000CF49096821F48031CD4A116011460968E6
:102B500021F480211160B0F5803F03D0B0F5802FC3
:102B60000ED106E0C649096841F48031C44A1160BB
:102B700007E0C349096841F4A021C14A116000E09F
:102B800000BF00BF704710B501460022002300209F
:102B90004A11012A02D1BA4C236806E0022A02D166
:102BA000B74C236A01E0B64C636A01F01F020124AE
:102BB00094401C400CB1012000E0002010BD38B54D
:102BC000002000900024002500BF3120FFF7DBFF2C
:102BD00005460098401C00900098B0F5A06F01D009
:102BE000002DF2D03120FFF7CEFF08B1012400E024
:102BF0000024204638BD01460020A14A106820F07C
:102C0000F80040EAC10010607047A04908607047B2
:102C1000024600209A4B586820F47C1042EA0103D7
:102C20001843974B586070479849086670470146AB
:102C30000020934A506820F003000843506070471A
:102C40008F48406800F00C007047014600208C4A15
:102C5000506820F0F00008435060704701460020A3
:102C6000874A506820F4E06008435060704701468E
:102C70000020834A506820F4605040EAC100506050
:102C8000704729B17E4A527A02437D4B5A7204E062
:102C90007B4A527A82437A4B5A7270477B49D831C9
:102CA0000860704701460020754A506820F4404093
:102CB0000843506070470021714A20321170704AF9
:102CC00082F82010012802D004280AD104E0012152
:102CD0006B4A2032117005E00521694A20321170DB
:102CE00000E000BF00BF7047694908607047644951
:102CF000096A0143624A11627047654944390860B4
:102D0000704730B500210022002400235C4D6D681F
:102D100005F00C0121B1042905D0082923D105E0D3
:102D20005C4D056022E05B4D05601FE0544D6D6811
:102D300005F47012524D6D6805F48034022505EBE0
:102D400092421CB9544D554305600BE04C4D6D68E3
:102D500005F400351DB1504D5543056002E04D4D61
:102D60005543056002E04B4D056000BF00BF444D78
:102D70006D6805F0F0010909484D6B5C0568DD40A0
:102D800045603F4D6D6805F4E061090A434D6B5C99
:102D90004568DD4085603A4D6D6805F46051C90AAB
:102DA0003E4D6B5C4568DD40C560354D6D6805F492
:102DB0004041890B3A4D6B5CC568B5FBF3F5056185
:102DC00030BD29B12E4A526902432D4B5A6104E0AD
:102DD0002B4A526982432A4B5A61704729B1284ACB
:102DE00092690243264B9A6104E0254A9269824324
:102DF000234B9A61704729B1214AD2690243204B83
:102E0000DA6104E01E4AD26982431D4BDA617047E1
:102E100029B11B4AD2680243194BDA6004E0184A10
:102E2000D2688243164BDA60704729B1144A12699E
:102E30000243134B1A6104E0114A12698243104B9A
:102E40001A61704712494039086070470F49C864D9
:102E500070470B49C87170470948406A40F080705C
:102E600007494862704701460020054A92680A40B7
:102E70000AB1012000E000207047014988727047C4
:102E8000001002400000FFF8FFFFF6FE0000424283
:102E90008004424200127A0000093D002000002018
:102EA0003000002010B50446FB48844209D10121BE
:102EB0008803FFF7ADFF00214FF48040FFF7A8FF24
:102EC00032E0F648844209D101214804FFF7ADFF02
:102ED00000214FF40030FFF7A8FF25E0F0488442BE
:102EE00009D101218804FFF7A0FF00214FF48020C1
:102EF000FFF79BFF18E0EB48844209D10121C80489
:102F0000FFF793FF00214FF40020FFF78EFF0BE047
:102F1000E548844208D101210805FFF786FF00211A
:102F20004FF48010FFF781FF10BD2DE9F04786B008
:102F300005460E460024A24600BFA1460027B089E0
:102F400000B100BF2F462C8A4CF6FF700440F08879
:102F500004432C82AC894EF6F3100440B0883189CA
:102F60000843718908430443AC81AC8A4FF6FF40A3
:102F70000440B0890443AC8201A8FFF7C2FEC648F2
:102F8000874202D1DDF810A001E0DDF80CA0A8898D
:102F900000F4004040B10AEBCA0000EB0A103168AF
:102FA0004900B0FBF1F807E00AEBCA0000EB0A1099
:102FB00031688900B0FBF1F86420B8FBF0F004013F
:102FC0002009642101FB1089A88900F4004040B168
:102FD000322000EBC900B0FBF1F000F00700044321
:102FE00008E0322000EB09106421B0FBF1F000F0A2
:102FF0000F0004432C8106B0BDE8F0874FF4165152
:10300000016000218180C18001810C21418100216A
:103010008181704710B502460020108A4FF2FF03ED
:1030200018400B884C8823438C882343CC88234347
:103030001843108210BD0021018041808180C18031
:10304000704721B1828942F40052828104E0828972
:103050004DF6FF731A4082817047F0B50346002495
:1030600000260025002040F66A17B94200D100BFB3
:103070001846C1F3421401F01F06012707FA06F5AE
:10308000012C01D10C3004E0022C01D1103000E001
:1030900014301AB107682F43076002E00768AF4396
:1030A0000760F0BD1AB1838A0B43838202E0838AF2
:1030B0008B4383827047028A4FF6F0731A40028274
:1030C000028A0A430282704782894FF2FF731A40D4
:1030D000828182890A438281704721B1828942F0CC
:1030E0000202828104E082894FF6FD731A408281D8
:1030F0007047028A4FF6DF731A400282028A0A433F
:103100000282704721B1028A42F48042028204E0C6
:10311000028A4BF6FF731A4002827047C1F308021D
:103120008280704701468888C0F308007047818913
:1031300041F0010181817047028BD2B20283028B80
:1031400042EA012202837047028B02F47F4202832B
:10315000028B0A430283704721B1828A42F0200227
:10316000828204E0828A4FF6DF731A4082827047BF
:1031700021B1828A42F01002828204E0828A4FF6F4
:10318000EF731A408282704721B1828A42F00802AE
:10319000828204E0828A4FF6F7731A408282704777
:1031A00021B1828942F40042828103E08289C2F324
:1031B0000E028281704721B1828A42F400628282CB
:1031C00004E0828A4FF2FF731A4082827047828A3B
:1031D0004FF6FB731A408282828A0A4382827047CA
:1031E00021B1828A42F00202828204E0828A4FF692
:1031F000FD731A408282704702460020B1F5007FBD
:1032000000D100BF13880B400BB1012000E000206B
:10321000704701F40072B2F5007F00D100BFCA43CD
:103220000280704770B5024600240023002500206C
:1032300040F66A16B14200D100BFC1F3421501F059
:103240001F03012606FA03F3012D02D196893340AC
:1032500006E0022D02D1168A334001E0968A3340FF
:103260000C12012606FA04F41688344013B10CB18E
:10327000012000E0002070BD10B50022002340F6C0
:103280006A14A14200D100BF0A1201249440A3B2E3
:10329000DC43048010BD00000038014000440040C1
:1032A00000480040004C00400050004010B504466B
:1032B000FE48844208D10121C014FFF7A9FD002176
:1032C000E014FFF7A5FDC4E0B4F1804F08D101215F
:1032D0000846FFF7AAFD00210120FFF7A6FDB8E090
:1032E000F348844208D101210220FFF79EFD00210E
:1032F0000220FFF79AFDACE0EE48844208D101219C
:103300000420FFF792FD00210420FFF78EFDA0E0CE
:10331000E948844208D101210820FFF786FD0021F9
:103320000820FFF782FD94E0E448844208D101219F
:103330001020FFF77AFD00211020FFF776FD88E0CE
:10334000DF48844208D101212020FFF76EFD0021D3
:103350002020FFF76AFD7CE0DA48844208D1012191
:103360004014FFF755FD00216014FFF751FD70E098
:10337000D548844209D10121C804FFF749FD002145
:103380004FF40020FFF744FD63E0D048844209D1A8
:1033900001210805FFF73CFD00214FF48010FFF7E5
:1033A00037FD56E0CA48844209D101214805FFF79C
:1033B0002FFD00214FF40010FFF72AFD49E0C5481A
:1033C000844208D101214020FFF72FFD0021402039
:1033D000FFF72BFD3DE0C048844208D10121802049
:1033E000FFF723FD00218020FFF71FFD31E0BB48E0
:1033F000844208D101218015FFF717FD0021A01597
:10340000FFF713FD25E0B648844209D101210804E5
:10341000FFF7FEFC00214FF48030FFF7F9FC18E0C5
:10342000B048844209D101214804FFF7F1FC002192
:103430004FF40030FFF7ECFC0BE0AB48844208D1BE
:1034400001218804FFF7E4FC00214FF48020FFF7FE
:10345000DFFC10BD00220288944B98420ED0994B9D
:1034600098420BD0B0F1804F08D0914B984205D0D4
:10347000904B984202D0904B984204D14FF68F73F4
:103480001A404B881A438D4B984207D08C4B984278
:1034900004D04FF6FF431A40CB881A4302808B8832
:1034A00083850B880385814B98420BD0854B9842CE
:1034B00008D08B4B984205D08A4B984202D08A4B59
:1034C000984201D10B7A038601238382704770B53D
:1034D000002400220023058C4FF6FE76354005843B
:1034E000028C8388048B4FF68F752C40B51E2C40C0
:1034F0000D882C43751E2A400D892A434D882A4386
:103500006A4DA8420BD06F4DA84208D0744DA84216
:1035100005D0744DA84202D0734DA84213D14FF686
:10352000F7752A404D892A434FF6FB752A408D884E
:103530002A434FF6FF652B404FF6FF552B408D89F0
:103540002B43CD892B4383800483CD8885860284D9
:1035500070BD70B5002400220023058C4FF6EF7675
:1035600035400584028C8388048B48F6FF752C4017
:103570004FF6FF452C400D884FF6FF7606EA0525ED
:103580002C434FF6DF752A400D8906EA05152A43BC
:103590004D8806EA05152A43444DA84202D0494DFC
:1035A000A8421DD14FF67F752A404D894FF6FF7610
:1035B00006EA05152A434FF6BF752A408D8806EAAC
:1035C00005152A434FF6FF352B404FF2FF752B4070
:1035D0008D8906EA85052B43CD8906EA85052B43AF
:1035E00083800483CD880587028470BD70B5002474
:1035F00000220023058C4FF6FF6635400584028CBF
:103600008388848B4FF68F752C404FF6FC752C40C9
:103610000D882C434FF6FF552A400D894FF6FF7653
:1036200006EA05252A434D8806EA05252A431F4D4B
:10363000A84202D0234DA8421DD14FF2FF752A4067
:103640004D894FF6FF7606EA05252A434FF6FF35EA
:103650002A408D8806EA05252A434EF6FF752B4041
:103660004DF6FF752B408D8906EA05152B43CD8954
:1036700006EA05152B4383808483CD8885870284E1
:1036800070BD70B5002200230024058C4EF6FF7635
:1036900035400584038C8488828B48F6FF752A4068
:1036A0004FF6FF452A400D8820E00000002C014025
:1036B0000004004000080040000C004000100040E2
:1036C0000014004000340140004C01400050014013
:1036D0000054014000180040001C00400020004041
:1036E0000040014000440140004801404FF6FF7691
:1036F00006EA05252A434DF6FF752B400D8906EA9B
:1037000005352B434D8806EA05352B43FA4DA84273
:1037100002D0FA4DA84208D14BF6FF752C408D8996
:103720004FF6FF7606EA85152C4384808283CD8888
:10373000A0F84050038470BD828B4FF2FF331A40D3
:103740008283828B4FF6FF7303EA01231A4382833D
:103750007047F0B50C461546002200210026078C64
:103760004EF6FF7C07EA0C070784828B018C4FF62C
:10377000FF7707EA043640F6FF473A404FF6FF77F7
:1037800007EA05273A434FF6FF7707EA03373A433C
:10379000D94FB8420ED0D94FB8420BD0B0F1804FBC
:1037A00008D0D74FB84205D0D64FB84202D0D64F36
:1037B000B84206D14DF6FF77394046F48057394379
:1037C00005E047F6FF57394044F480573943828378
:1037D0000184F0BD828B4FF6F3731A408283828B93
:1037E0000A4382837047F0B50C461546002200213B
:1037F0000026078C4FF6FF6C07EA0C070784828BC4
:10380000018C4FF6FF7707EA04264FF60C773A4013
:103810004FF6FF7707EA03172F433A43B64FB842F4
:103820000ED0B64FB8420BD0B0F1804F08D0B44F95
:10383000B84205D0B34FB84202D0B34FB84206D118
:103840004FF6FF57394046F48077394305E04FF291
:10385000FF57394044F48077394382830184F0BDB7
:10386000028B4FF2FF331A400283028B4FF6FF7335
:1038700003EA01231A4302837047F0B50C4615464C
:10388000002200210026078C4FF6EF7C07EA0C0788
:103890000784028B018C4FF6FF7707EA041640F687
:1038A000FF473A404FF6FF7707EA03373A434FF6B0
:1038B000FF7707EA05273A438F4FB8420ED08F4F64
:1038C000B8420BD0B0F1804F08D08D4FB84205D030
:1038D0008C4FB84202D08C4FB84206D14FF6DF77FA
:1038E000394046F01007394305E04FF65F7739401D
:1038F00044F01007394302830184F0BD028B4FF678
:10390000F3731A400283028B0A4302837047F0B5B7
:103910000C46154600220021068C4FF6FE773E40ED
:103920000684028B018C4FF60C7632407E1C06EA30
:1039300003162E433243704EB0420ED06F4EB0424B
:103940000BD0B0F1804F08D06D4EB04205D06D4E17
:10395000B04202D06C4EB04206D14FF6FD763140F7
:1039600044F00106314305E04FF6F576314044F06E
:103970000106314302830184F0BD70B505460C4653
:103980005D4885420ED05D4885420BD0B5F1804F31
:1039900008D05B48854205D05A48854202D05A4833
:1039A000854200D100E000BF208850B92389A28859
:1039B00061882846FFF7ABFFE1882846FFF79EFFA6
:1039C00025E0208804280AD12389A2886188284616
:1039D000FFF753FFE1882846FFF742FF17E02088F2
:1039E00008280AD12389A28861882846FFF7FBFEB0
:1039F000E1882846FFF7EEFE09E02389A288618866
:103A00002846FFF7A6FEE1882846FFF795FE70BD21
:103A10002DE9F04105460C4600260127608808B9CB
:103A2000022600E00026A088012801D1022700E03C
:103A300001272088A0B92389A28861882846FFF73A
:103A400066FFE1882846FFF759FF23893A46314649
:103A50002846FFF712FFE1882846FFF701FF13E031
:103A60002389A28861882846FFF707FFE188284656
:103A7000FFF7F6FE23893A4631462846FFF747FF0F
:103A8000E1882846FFF73AFFBDE8F0810A884B88B5
:103A90001A438B881A43CB881A430B891A434B89E4
:103AA0001A438B891A43A0F8442070474FF6FF71E0
:103AB000818000210180C180418001727047002116
:103AC000018041808180C180018141818181C181EA
:103AD0007047002101804180012181800021C18047
:103AE000018170470021018041808180C180018176
:103AF0004181818170470000002C01400034014069
:103B00000004004000080040000C004021B1028881
:103B100042F00102028004E002884FF6FE731A4070
:103B20000280704731B1B0F8442042F40042A0F85E
:103B3000442005E0B0F84420C2F30E02A0F844206F
:103B400070471AB183890B43838102E083898B43D9
:103B5000838170478182704741EA0203A0F84830B0
:103B600070471AB183890B43838102E083898B43B9
:103B70008381704701894FF6F872114001817047C7
:103B80000A46002101894FF68F73194011430181C4
:103B9000704730B504460D4629462046FFF7F0FF32
:103BA000208940F00700208130BD2DE9F041044616
:103BB0000D4616461F46602D06D13B460122314672
:103BC0002046FFF75AFE05E03B46012231462046DB
:103BD000FFF79DFE29462046FFF7D2FF208940F0DF
:103BE00007002081BDE8F08130B50C460021018935
:103BF000C9B24FF6FF7505EA03251543254329434E
:103C0000018130BD2DE9F04105460E461746984624
:103C1000002443463A4631462846FFF7E5FF2C8903
:103C20004FF6F870044044F007044FF68F700440DC
:103C300044F070042C81BDE8F081F0B504460D46D7
:103C400016461F463B46324629462046FFF7CCFF24
:103C5000208940F480402081F0BD01858282704738
:103C60000A46002101884FF68F73194011430180E5
:103C70007047F0B50C4615461E4600210022002371
:103C80000189028B038C4FF6F877394021434FF6B8
:103C9000FC473A4040F201173A434FF6DD773B408C
:103CA0004FF6FF7707EA06172F433B430181028354
:103CB0000384F0BD0A460021018B4FF68F73194033
:103CC0001143018370470A460021018B48F6FF73B8
:103CD00019404FF6FF7303EA02231943018370472B
:103CE0000A460021818B4FF68F731940114381835F
:103CF00070470A460021818B48F6FF7319404FF642
:103D0000FF7303EA022319438183704721B10288BC
:103D100042F08002028004E002884FF67F731A406E
:103D20000280704721B1828842F00402828004E060
:103D300082884FF6FB731A408280704721B18288D7
:103D400042F00802828004E082884FF6F7731A403E
:103D50008280704721B1828842F00102828004E0B3
:103D600082884FF6FE731A40828070470A4600210F
:103D7000018B4FF6F77319401143018370470A46D0
:103D80000021018B4FF2FF7319404FF6FF7303EAD6
:103D900002231943018370470A460021818B4FF6A5
:103DA000F77319401143818370470A460021818BC4
:103DB0004FF2FF7319404FF6FF7303EA02231943D2
:103DC000818370470A460021018B4FF6FB7319402F
:103DD0001143018370470A460021018B4FF6FF33E0
:103DE00019404FF6FF7303EA02231943018370471A
:103DF0000A460021818B4FF6FB73194011438183E2
:103E000070470A460021818B4FF6FF3319404FF669
:103E1000FF7303EA02231943818370470A46002196
:103E2000018B4FF67F7319401143018370470A4697
:103E30000021018BC1F30E014FF6FF7303EA022349
:103E40001943018370470A460021818B4FF67F7327
:103E500019401143818370470A460021818BC1F3C9
:103E60000E014FF6FF7303EA022319438183704763
:103E70000A460021018C4FF6FD731940114301845D
:103E800070470A460021018C4FF6F7731940114321
:103E9000018470470A460021018C4FF6DF731940F8
:103EA0004FF6FF7303EA02131943018470470A4671
:103EB0000021018C4FF67F7319404FF6FF7303EA20
:103EC00002131943018470470A460021018C4FF602
:103ED000FF5319404FF6FF7303EA0223194301848D
:103EE00070470A460021018C4FF2FF7319404FF6CC
:103EF000FF7303EA02231943018470470A46002135
:103F0000018C4DF6FF7319404FF6FF7303EA02333D
:103F100019430184704730B5002301248C40A3B2BB
:103F2000048C9C430484048C02FA01F5ADB22C434A
:103F3000048430BD30B5002304248C40A3B2048C2B
:103F40009C430484048C02FA01F5ADB22C43048432
:103F500030BD70B5034600200024184618300125F6
:103F60008D40ACB21D8CA5431D8409B1082909D12F
:103F700000EB6100056825F07005056005681543D4
:103F800005600EE00D1FC5F34E052844056825F4B5
:103F9000E045056005684FF6FF7606EA02263543E0
:103FA000056070BD21B1028842F00202028004E087
:103FB00002884FF6FD731A400280704721B10288D3
:103FC00042F00402028004E002884FF6FB731A40BC
:103FD0000280704721B1828842F08002828004E032
:103FE00082884FF67F731A408280704702884FF6AE
:103FF000F7731A40028002880A4302807047828861
:104000004FF68F731A40828082880A4382807047FD
:1040100002894FF6F8731A40028102890A4302812D
:10402000704702894FF67F731A40028102890A4362
:10403000028170478184704781857047818670470F
:104040000187704781877047A0F840107047028849
:104050004FF6FF431A40028002880A4302807047ED
:104060000146888E70470146088F70470146888F49
:1040700070470146B1F8400070470146888C704790
:104080000146088D704702460020138A0B400BB191
:10409000012000E000207047CA430282704730B51B
:1040A0000246002000230024158A05EA01039589B1
:1040B00005EA010413B10CB1012000E0002030BD7D
:1040C000CA43028270470000002044490860091D6D
:1040D0000860091D0860091D086041483F49143106
:1040E0000860704700213D498279002A3AD00A468B
:1040F000126803689A430B461A600A1D1268036827
:104100009A430B1D1A60027911440A6803681A4326
:104110000A60324A0832126803689A432F4B083308
:104120001A601A1D126803689A432C4B0C331A60EC
:104130004279102A0ED11A1F126803681A43274BBE
:1041400008331A601A1D126803681A43234B0C3394
:104150001A600DE02149427911440A6803681A4344
:104160000A6005E0027911440A6803689A430A600C
:1041700070470021016001710C21417100218171A2
:1041800070471649103109680143144A1032116012
:10419000704701460020114A143212680A400AB1E1
:1041A000012000E0002070470C491431086070477E
:1041B000014600200022094B1B6803EA0102074B5D
:1041C00014331B680B4013B10AB1012000E000203A
:1041D0007047024914310860704700000004014034
:1041E000FFFF0F00704770477047754600F02CF8CE
:1041F000AE4605006946534620F00700854618B0D4
:1042000020B5FEF74FFABDE820404FF000064FF012
:1042100000074FF000084FF0000B21F00701AC46FB
:10422000ACE8C009ACE8C009ACE8C009ACE8C0091A
:104230008D46704710B50446AFF300802046BDE8B8
:104240001040FBF7BCBF000000487047C4010020CD
:104250007042000800000020340000006C010008DB
:10426000A442000834000020F40700008801000880
:1042700000A24A0400000000000000000102030444
:104280000607080900000000000000000000000010
:1042900000000000010203040102030406070809EC
:0442A0000204060806
:0400000508000131BD
:00000001FF
